{
  "contractName": "Consumer",
  "abi": [
    {
      "inputs": [
        {
          "internalType": "address",
          "name": "_oracle",
          "type": "address"
        }
      ],
      "stateMutability": "nonpayable",
      "type": "constructor"
    },
    {
      "inputs": [],
      "name": "oracle",
      "outputs": [
        {
          "internalType": "contract IOracle",
          "name": "",
          "type": "address"
        }
      ],
      "stateMutability": "view",
      "type": "function"
    },
    {
      "inputs": [],
      "name": "foo",
      "outputs": [],
      "stateMutability": "nonpayable",
      "type": "function"
    }
  ],
  "bytecode": "0x608060405234801561001057600080fd5b506040516106383803806106388339818101604052810190610032919061008d565b806000806101000a81548173ffffffffffffffffffffffffffffffffffffffff021916908373ffffffffffffffffffffffffffffffffffffffff160217905550506100ff565b600081519050610087816100e8565b92915050565b60006020828403121561009f57600080fd5b60006100ad84828501610078565b91505092915050565b60006100c1826100c8565b9050919050565b600073ffffffffffffffffffffffffffffffffffffffff82169050919050565b6100f1816100b6565b81146100fc57600080fd5b50565b61052a8061010e6000396000f3fe608060405234801561001057600080fd5b50600436106100365760003560e01c80637dc0d1d01461003b578063c298557814610059575b600080fd5b610043610063565b6040516100509190610388565b60405180910390f35b610061610087565b005b60008054906101000a900473ffffffffffffffffffffffffffffffffffffffff1681565b600060405160200161009890610358565b60405160208183030381529060405280519060200120905060008060008060009054906101000a900473ffffffffffffffffffffffffffffffffffffffff1673ffffffffffffffffffffffffffffffffffffffff166354f6127f856040518263ffffffff1660e01b815260040161010f919061036d565b60606040518083038186803b15801561012757600080fd5b505afa15801561013b573d6000803e3d6000fd5b505050506040513d601f19601f8201168201806040525081019061015f919061022b565b92509250925060011515831515146101ac576040517f08c379a00000000000000000000000000000000000000000000000000000000081526004016101a3906103c3565b60405180910390fd5b6078426101b991906103ff565b8210156101fb576040517f08c379a00000000000000000000000000000000000000000000000000000000081526004016101f2906103a3565b60405180910390fd5b50505050565b600081519050610210816104c6565b92915050565b600081519050610225816104dd565b92915050565b60008060006060848603121561024057600080fd5b600061024e86828701610201565b935050602061025f86828701610216565b925050604061027086828701610216565b9150509250925092565b6102838161043f565b82525050565b61029281610473565b82525050565b60006102a5600d836103e3565b91507f707269636520746f6f206f6c64000000000000000000000000000000000000006000830152602082019050919050565b60006102e56007836103f4565b91507f4254432f555344000000000000000000000000000000000000000000000000006000830152600782019050919050565b60006103256013836103e3565b91507f636f756c64206e6f7420676574207072696365000000000000000000000000006000830152602082019050919050565b6000610363826102d8565b9150819050919050565b6000602082019050610382600083018461027a565b92915050565b600060208201905061039d6000830184610289565b92915050565b600060208201905081810360008301526103bc81610298565b9050919050565b600060208201905081810360008301526103dc81610318565b9050919050565b600082825260208201905092915050565b600081905092915050565b600061040a82610469565b915061041583610469565b92508282101561042857610427610497565b5b828203905092915050565b60008115159050919050565b6000819050919050565b600073ffffffffffffffffffffffffffffffffffffffff82169050919050565b6000819050919050565b600061047e82610485565b9050919050565b600061049082610449565b9050919050565b7f4e487b7100000000000000000000000000000000000000000000000000000000600052601160045260246000fd5b6104cf81610433565b81146104da57600080fd5b50565b6104e681610469565b81146104f157600080fd5b5056fea2646970667358221220e261c4e2732ece325178b624178269afdb06d50a9145a9dff254b2fe3eadb20e64736f6c63430008000033",
  "immutableReferences": {},
  "source": "pragma solidity ^0.8.0;\n\nimport './IOracle.sol';\n\ncontract Consumer {\n  IOracle public oracle;\n\n  constructor(address _oracle) {\n    oracle = IOracle(_oracle);\n  }\n\n  function foo() external {\n    bytes32 key = keccak256(abi.encodePacked('BTC/USD'));\n\n    (bool result, uint timestamp, uint data) = oracle.getData(key);\n    require(result == true, 'could not get price');\n    require(timestamp >= block.timestamp - 2 minutes, 'price too old'); \n    //so something with price;\n\n  }\n}",
  "sourcePath": "/Users/codecrunch/Documents/mansi/Blockchain/eatTheblocks(course)/oracle/contracts/Counsumer.sol",
  "compiler": {
    "name": "solc",
    "version": "0.8.0+commit.c7dfd78e.Emscripten.clang"
  },
  "schemaVersion": "3.4.2",
  "updatedAt": "2022-02-21T10:17:04.846Z",
  "devdoc": {
    "kind": "dev",
    "methods": {},
    "version": 1
  },
  "userdoc": {
    "kind": "user",
    "methods": {},
    "version": 1
  }
}