{
  "contractName": "Oracle",
  "abi": [
    {
      "inputs": [
        {
          "internalType": "address",
          "name": "_admin",
          "type": "address"
        }
      ],
      "stateMutability": "nonpayable",
      "type": "constructor"
    },
    {
      "inputs": [],
      "name": "admin",
      "outputs": [
        {
          "internalType": "address",
          "name": "",
          "type": "address"
        }
      ],
      "stateMutability": "view",
      "type": "function"
    },
    {
      "inputs": [
        {
          "internalType": "bytes32",
          "name": "",
          "type": "bytes32"
        }
      ],
      "name": "data",
      "outputs": [
        {
          "internalType": "uint256",
          "name": "date",
          "type": "uint256"
        },
        {
          "internalType": "uint256",
          "name": "payload",
          "type": "uint256"
        }
      ],
      "stateMutability": "view",
      "type": "function"
    },
    {
      "inputs": [
        {
          "internalType": "address",
          "name": "",
          "type": "address"
        }
      ],
      "name": "reporters",
      "outputs": [
        {
          "internalType": "bool",
          "name": "",
          "type": "bool"
        }
      ],
      "stateMutability": "view",
      "type": "function"
    },
    {
      "inputs": [
        {
          "internalType": "address",
          "name": "reporter",
          "type": "address"
        },
        {
          "internalType": "bool",
          "name": "isReporter",
          "type": "bool"
        }
      ],
      "name": "updateReporter",
      "outputs": [],
      "stateMutability": "nonpayable",
      "type": "function"
    },
    {
      "inputs": [
        {
          "internalType": "bytes32",
          "name": "key",
          "type": "bytes32"
        },
        {
          "internalType": "uint256",
          "name": "payload",
          "type": "uint256"
        }
      ],
      "name": "updateData",
      "outputs": [],
      "stateMutability": "nonpayable",
      "type": "function"
    },
    {
      "inputs": [
        {
          "internalType": "bytes32",
          "name": "key",
          "type": "bytes32"
        }
      ],
      "name": "getData",
      "outputs": [
        {
          "internalType": "bool",
          "name": "result",
          "type": "bool"
        },
        {
          "internalType": "uint256",
          "name": "date",
          "type": "uint256"
        },
        {
          "internalType": "uint256",
          "name": "payload",
          "type": "uint256"
        }
      ],
      "stateMutability": "view",
      "type": "function"
    }
  ],
  "bytecode": "0x608060405234801561001057600080fd5b5060405161086c38038061086c8339818101604052810190610032919061008d565b806000806101000a81548173ffffffffffffffffffffffffffffffffffffffff021916908373ffffffffffffffffffffffffffffffffffffffff160217905550506100ff565b600081519050610087816100e8565b92915050565b60006020828403121561009f57600080fd5b60006100ad84828501610078565b91505092915050565b60006100c1826100c8565b9050919050565b600073ffffffffffffffffffffffffffffffffffffffff82169050919050565b6100f1816100b6565b81146100fc57600080fd5b50565b61075e8061010e6000396000f3fe608060405234801561001057600080fd5b50600436106100625760003560e01c80630147fb0c146100675780631ec6e24f146100985780632cc1cd9e146100b457806354f6127f146100e4578063a8200ab714610116578063f851a44014610132575b600080fd5b610081600480360381019061007c9190610481565b610150565b60405161008f929190610640565b60405180910390f35b6100b260048036038101906100ad9190610445565b610174565b005b6100ce60048036038101906100c9919061041c565b61023d565b6040516100db91906105ae565b60405180910390f35b6100fe60048036038101906100f99190610481565b61025d565b60405161010d939291906105c9565b60405180910390f35b610130600480360381019061012b91906104aa565b6102ce565b005b61013a6103a4565b6040516101479190610593565b60405180910390f35b60026020528060005260406000206000915090508060000154908060010154905082565b8173ffffffffffffffffffffffffffffffffffffffff163373ffffffffffffffffffffffffffffffffffffffff16146101e2576040517f08c379a00000000000000000000000000000000000000000000000000000000081526004016101d990610620565b60405180910390fd5b80600160008473ffffffffffffffffffffffffffffffffffffffff1673ffffffffffffffffffffffffffffffffffffffff16815260200190815260200160002060006101000a81548160ff0219169083151502179055505050565b60016020528060005260406000206000915054906101000a900460ff1681565b600080600080600260008681526020019081526020016000206000015414156102905760008060009250925092506102c7565b6001600260008681526020019081526020016000206000015460026000878152602001908152602001600020600101549250925092505b9193909250565b60011515600160003373ffffffffffffffffffffffffffffffffffffffff1673ffffffffffffffffffffffffffffffffffffffff16815260200190815260200160002060009054906101000a900460ff16151514610361576040517f08c379a000000000000000000000000000000000000000000000000000000000815260040161035890610600565b60405180910390fd5b6040518060400160405280428152602001828152506002600084815260200190815260200160002060008201518160000155602082015181600101559050505050565b60008054906101000a900473ffffffffffffffffffffffffffffffffffffffff1681565b6000813590506103d7816106cc565b92915050565b6000813590506103ec816106e3565b92915050565b600081359050610401816106fa565b92915050565b60008135905061041681610711565b92915050565b60006020828403121561042e57600080fd5b600061043c848285016103c8565b91505092915050565b6000806040838503121561045857600080fd5b6000610466858286016103c8565b9250506020610477858286016103dd565b9150509250929050565b60006020828403121561049357600080fd5b60006104a1848285016103f2565b91505092915050565b600080604083850312156104bd57600080fd5b60006104cb858286016103f2565b92505060206104dc85828601610407565b9150509250929050565b6104ef8161067a565b82525050565b6104fe8161068c565b82525050565b6000610511600f83610669565b91507f4f6e6c79207265706f72746572732100000000000000000000000000000000006000830152602082019050919050565b6000610551600b83610669565b91507f4f6e6c792061646d696e210000000000000000000000000000000000000000006000830152602082019050919050565b61058d816106c2565b82525050565b60006020820190506105a860008301846104e6565b92915050565b60006020820190506105c360008301846104f5565b92915050565b60006060820190506105de60008301866104f5565b6105eb6020830185610584565b6105f86040830184610584565b949350505050565b6000602082019050818103600083015261061981610504565b9050919050565b6000602082019050818103600083015261063981610544565b9050919050565b60006040820190506106556000830185610584565b6106626020830184610584565b9392505050565b600082825260208201905092915050565b6000610685826106a2565b9050919050565b60008115159050919050565b6000819050919050565b600073ffffffffffffffffffffffffffffffffffffffff82169050919050565b6000819050919050565b6106d58161067a565b81146106e057600080fd5b50565b6106ec8161068c565b81146106f757600080fd5b50565b61070381610698565b811461070e57600080fd5b50565b61071a816106c2565b811461072557600080fd5b5056fea2646970667358221220fc1398e112bc7842fa6e4ac5977c10ea73a1784ca8e9f425531220c67ba899c364736f6c63430008000033",
  "immutableReferences": {},
  "source": "// SPDX-License-Identifier: MIT\npragma solidity ^0.8.0;\n\ncontract Oracle{\n    struct Data{\n        uint date;\n        uint payload;\n    }\n\n    address public admin;\n    mapping (address => bool) public reporters;\n    mapping (bytes32 => Data) public data;\n\n    constructor(address _admin){\n        admin = _admin;\n    }\n\n    function updateReporter(address reporter, bool isReporter) external{\n        require(msg.sender == reporter, \"Only admin!\");\n        reporters[reporter] = isReporter;\n    }\n\n    function updateData(bytes32 key, uint payload) external{\n         require(reporters[msg.sender] == true, \"Only reporters!\");\n         data[key] = Data(block.timestamp, payload);\n    }\n\n    \n    function getData(bytes32 key) external view returns(bool result, uint date, uint payload){\n        if(data[key].date == 0){\n            return (false,0,0);\n        }\n        return(true, data[key].date, data[key].payload);\n    }\n}",
  "sourcePath": "/Users/codecrunch/Documents/mansi/Blockchain/eatTheblocks(course)/oracle/contracts/Oracle.sol",
  "compiler": {
    "name": "solc",
    "version": "0.8.0+commit.c7dfd78e.Emscripten.clang"
  },
  "schemaVersion": "3.4.2",
  "updatedAt": "2022-02-21T10:17:04.852Z",
  "devdoc": {
    "kind": "dev",
    "methods": {},
    "version": 1
  },
  "userdoc": {
    "kind": "user",
    "methods": {},
    "version": 1
  }
}